{
    "_format": "hh-sol-artifact-1",
    "contractName": "chai",
    "sourceName": "contracts/chai.sol",
    "abi": [
        {
            "inputs": [],
            "stateMutability": "nonpayable",
            "type": "constructor"
        },
        {
            "inputs": [
                {
                    "internalType": "uint256",
                    "name": "amount",
                    "type": "uint256"
                }
            ],
            "name": "AmountLessThanZero",
            "type": "error"
        },
        {
            "inputs": [
                {
                    "internalType": "string",
                    "name": "name",
                    "type": "string"
                },
                {
                    "internalType": "string",
                    "name": "message",
                    "type": "string"
                }
            ],
            "name": "buyChai",
            "outputs": [],
            "stateMutability": "payable",
            "type": "function"
        },
        {
            "inputs": [],
            "name": "getMemo",
            "outputs": [
                {
                    "components": [
                        {
                            "internalType": "string",
                            "name": "name",
                            "type": "string"
                        },
                        {
                            "internalType": "string",
                            "name": "message",
                            "type": "string"
                        },
                        {
                            "internalType": "uint256",
                            "name": "timeStamp",
                            "type": "uint256"
                        },
                        {
                            "internalType": "address",
                            "name": "from",
                            "type": "address"
                        }
                    ],
                    "internalType": "struct chai.Memo[]",
                    "name": "",
                    "type": "tuple[]"
                }
            ],
            "stateMutability": "view",
            "type": "function"
        }
    ],
    "bytecode": "0x608060405234801561001057600080fd5b50336000806101000a81548173ffffffffffffffffffffffffffffffffffffffff021916908373ffffffffffffffffffffffffffffffffffffffff160217905550610c33806100606000396000f3fe6080604052600436106100295760003560e01c80636a13d8591461002e5780638aa7b4b11461004a575b600080fd5b6100486004803603810190610043919061054a565b610075565b005b34801561005657600080fd5b5061005f6102f8565b60405161006c91906107e1565b60405180910390f35b60003410156100bb57346040517f343df5690000000000000000000000000000000000000000000000000000000081526004016100b29190610812565b60405180910390fd5b60008060009054906101000a900473ffffffffffffffffffffffffffffffffffffffff1673ffffffffffffffffffffffffffffffffffffffff16346040516101029061085e565b60006040518083038185875af1925050503d806000811461013f576040519150601f19603f3d011682016040523d82523d6000602084013e610144565b606091505b5050905080610188576040517f08c379a000000000000000000000000000000000000000000000000000000000815260040161017f906108d0565b60405180910390fd5b6001604051806080016040528087878080601f016020809104026020016040519081016040528093929190818152602001838380828437600081840152601f19601f82011690508083019250505050505050815260200185858080601f016020809104026020016040519081016040528093929190818152602001838380828437600081840152601f19601f8201169050808301925050505050505081526020014281526020013373ffffffffffffffffffffffffffffffffffffffff16815250908060018154018082558091505060019003906000526020600020906004020160009091909190915060008201518160000190816102879190610b2b565b50602082015181600101908161029d9190610b2b565b506040820151816002015560608201518160030160006101000a81548173ffffffffffffffffffffffffffffffffffffffff021916908373ffffffffffffffffffffffffffffffffffffffff16021790555050505050505050565b60606001805480602002602001604051908101604052809291908181526020016000905b828210156104d2578382906000526020600020906004020160405180608001604052908160008201805461034f9061094e565b80601f016020809104026020016040519081016040528092919081815260200182805461037b9061094e565b80156103c85780601f1061039d576101008083540402835291602001916103c8565b820191906000526020600020905b8154815290600101906020018083116103ab57829003601f168201915b505050505081526020016001820180546103e19061094e565b80601f016020809104026020016040519081016040528092919081815260200182805461040d9061094e565b801561045a5780601f1061042f5761010080835404028352916020019161045a565b820191906000526020600020905b81548152906001019060200180831161043d57829003601f168201915b50505050508152602001600282015481526020016003820160009054906101000a900473ffffffffffffffffffffffffffffffffffffffff1673ffffffffffffffffffffffffffffffffffffffff1673ffffffffffffffffffffffffffffffffffffffff16815250508152602001906001019061031c565b50505050905090565b600080fd5b600080fd5b600080fd5b600080fd5b600080fd5b60008083601f84011261050a576105096104e5565b5b8235905067ffffffffffffffff811115610527576105266104ea565b5b602083019150836001820283011115610543576105426104ef565b5b9250929050565b60008060008060408587031215610564576105636104db565b5b600085013567ffffffffffffffff811115610582576105816104e0565b5b61058e878288016104f4565b9450945050602085013567ffffffffffffffff8111156105b1576105b06104e0565b5b6105bd878288016104f4565b925092505092959194509250565b600081519050919050565b600082825260208201905092915050565b6000819050602082019050919050565b600081519050919050565b600082825260208201905092915050565b60005b83811015610631578082015181840152602081019050610616565b60008484015250505050565b6000601f19601f8301169050919050565b6000610659826105f7565b6106638185610602565b9350610673818560208601610613565b61067c8161063d565b840191505092915050565b6000819050919050565b61069a81610687565b82525050565b600073ffffffffffffffffffffffffffffffffffffffff82169050919050565b60006106cb826106a0565b9050919050565b6106db816106c0565b82525050565b600060808301600083015184820360008601526106fe828261064e565b91505060208301518482036020860152610718828261064e565b915050604083015161072d6040860182610691565b50606083015161074060608601826106d2565b508091505092915050565b600061075783836106e1565b905092915050565b6000602082019050919050565b6000610777826105cb565b61078181856105d6565b935083602082028501610793856105e7565b8060005b858110156107cf57848403895281516107b0858261074b565b94506107bb8361075f565b925060208a01995050600181019050610797565b50829750879550505050505092915050565b600060208201905081810360008301526107fb818461076c565b905092915050565b61080c81610687565b82525050565b60006020820190506108276000830184610803565b92915050565b600081905092915050565b50565b600061084860008361082d565b915061085382610838565b600082019050919050565b60006108698261083b565b9150819050919050565b600082825260208201905092915050565b7f5472616e73616374696f6e204661696c65640000000000000000000000000000600082015250565b60006108ba601283610873565b91506108c582610884565b602082019050919050565b600060208201905081810360008301526108e9816108ad565b9050919050565b7f4e487b7100000000000000000000000000000000000000000000000000000000600052604160045260246000fd5b7f4e487b7100000000000000000000000000000000000000000000000000000000600052602260045260246000fd5b6000600282049050600182168061096657607f821691505b6020821081036109795761097861091f565b5b50919050565b60008190508160005260206000209050919050565b60006020601f8301049050919050565b600082821b905092915050565b6000600883026109e17fffffffffffffffffffffffffffffffffffffffffffffffffffffffffffffffff826109a4565b6109eb86836109a4565b95508019841693508086168417925050509392505050565b6000819050919050565b6000610a28610a23610a1e84610687565b610a03565b610687565b9050919050565b6000819050919050565b610a4283610a0d565b610a56610a4e82610a2f565b8484546109b1565b825550505050565b600090565b610a6b610a5e565b610a76818484610a39565b505050565b5b81811015610a9a57610a8f600082610a63565b600181019050610a7c565b5050565b601f821115610adf57610ab08161097f565b610ab984610994565b81016020851015610ac8578190505b610adc610ad485610994565b830182610a7b565b50505b505050565b600082821c905092915050565b6000610b0260001984600802610ae4565b1980831691505092915050565b6000610b1b8383610af1565b9150826002028217905092915050565b610b34826105f7565b67ffffffffffffffff811115610b4d57610b4c6108f0565b5b610b57825461094e565b610b62828285610a9e565b600060209050601f831160018114610b955760008415610b83578287015190505b610b8d8582610b0f565b865550610bf5565b601f198416610ba38661097f565b60005b82811015610bcb57848901518255600182019150602085019450602081019050610ba6565b86831015610be85784890151610be4601f891682610af1565b8355505b6001600288020188555050505b50505050505056fea264697066735822122008055540b097f306aae576205bece455d2cdd2e6832bb39a5a9c00ff32b9d4bc64736f6c63430008180033",
    "linkReferences": {},
    "deployedLinkReferences": {}
}